{"abi":[{"type":"constructor","inputs":[{"name":"_token","type":"address","internalType":"contract IERC20"}],"stateMutability":"nonpayable"},{"type":"function","name":"apiLaunched","inputs":[],"outputs":[{"name":"","type":"bool","internalType":"bool"}],"stateMutability":"view"},{"type":"function","name":"depositAmount","inputs":[{"name":"","type":"address","internalType":"address"}],"outputs":[{"name":"","type":"uint256","internalType":"uint256"}],"stateMutability":"view"},{"type":"function","name":"depositors","inputs":[{"name":"","type":"uint256","internalType":"uint256"}],"outputs":[{"name":"","type":"address","internalType":"address"}],"stateMutability":"view"},{"type":"function","name":"launchAPI","inputs":[],"outputs":[],"stateMutability":"nonpayable"},{"type":"function","name":"owner","inputs":[],"outputs":[{"name":"","type":"address","internalType":"address"}],"stateMutability":"view"},{"type":"function","name":"purchaseCredits","inputs":[{"name":"amount","type":"uint256","internalType":"uint256"}],"outputs":[],"stateMutability":"nonpayable"},{"type":"function","name":"refundDeposit","inputs":[{"name":"amount","type":"uint256","internalType":"uint256"}],"outputs":[],"stateMutability":"nonpayable"},{"type":"function","name":"renounceOwnership","inputs":[],"outputs":[],"stateMutability":"nonpayable"},{"type":"function","name":"token","inputs":[],"outputs":[{"name":"","type":"address","internalType":"contract IERC20"}],"stateMutability":"view"},{"type":"function","name":"transferOwnership","inputs":[{"name":"newOwner","type":"address","internalType":"address"}],"outputs":[],"stateMutability":"nonpayable"},{"type":"function","name":"withdrawTokens","inputs":[{"name":"amount","type":"uint256","internalType":"uint256"}],"outputs":[],"stateMutability":"nonpayable"},{"type":"event","name":"CreditsPurchased","inputs":[{"name":"purchaser","type":"address","indexed":true,"internalType":"address"},{"name":"amount","type":"int256","indexed":false,"internalType":"int256"}],"anonymous":false},{"type":"event","name":"OwnershipTransferred","inputs":[{"name":"previousOwner","type":"address","indexed":true,"internalType":"address"},{"name":"newOwner","type":"address","indexed":true,"internalType":"address"}],"anonymous":false},{"type":"error","name":"OwnableInvalidOwner","inputs":[{"name":"owner","type":"address","internalType":"address"}]},{"type":"error","name":"OwnableUnauthorizedAccount","inputs":[{"name":"account","type":"address","internalType":"address"}]},{"type":"error","name":"ReentrancyGuardReentrantCall","inputs":[]}],"bytecode":{"object":"0x608060405234801561000f575f5ffd5b50604051610db2380380610db283398101604081905261002e916100df565b338061005357604051631e4fbdf760e01b81525f600482015260240160405180910390fd5b61005c81610090565b5060018055600280546001600160a01b0319166001600160a01b03929092169190911790556005805460ff1916905561010c565b5f80546001600160a01b038381166001600160a01b0319831681178455604051919092169283917f8be0079c531659141344cd1fd0a4f28419497f9722a3daafe3b4186f6b6457e09190a35050565b5f602082840312156100ef575f5ffd5b81516001600160a01b0381168114610105575f5ffd5b9392505050565b610c99806101195f395ff3fe608060405234801561000f575f5ffd5b50600436106100a6575f3560e01c80638da5cb5b1161006e5780638da5cb5b14610114578063bef101fb14610138578063d79e79f71461014b578063e4b2fb7914610168578063f2fde38b1461017b578063fc0c546a1461018e575f5ffd5b8063315a095d146100aa57806350f62da7146100bf5780636de0de7e146100f1578063715018a6146101045780638466a0111461010c575b5f5ffd5b6100bd6100b8366004610b16565b6101a1565b005b6100de6100cd366004610b2d565b60036020525f908152604090205481565b6040519081526020015b60405180910390f35b6100bd6100ff366004610b16565b610410565b6100bd61069a565b6100bd6106ad565b5f546001600160a01b03165b6040516001600160a01b0390911681526020016100e8565b6100bd610146366004610b16565b610798565b6005546101589060ff1681565b60405190151581526020016100e8565b610120610176366004610b16565b6109a2565b6100bd610189366004610b2d565b6109ca565b600254610120906001600160a01b031681565b6101a9610a04565b6101b1610a30565b60055460ff1661021a5760405162461bcd60e51b815260206004820152602960248201527f43616e206f6e6c7920776974686472617720746f6b656e7320616674657220416044820152680a09240d8c2eadcc6d60bb1b60648201526084015b60405180910390fd5b6002546040516370a0823160e01b81523060048201525f916001600160a01b0316906370a0823190602401602060405180830381865afa158015610260573d5f5f3e3d5ffd5b505050506040513d601f19601f820116820180604052508101906102849190610b5a565b60025460405163095ea7b360e01b8152306004820152602481018590529192506001600160a01b03169063095ea7b3906044016020604051808303815f875af11580156102d3573d5f5f3e3d5ffd5b505050506040513d601f19601f820116820180604052508101906102f79190610b71565b50818110156103575760405162461bcd60e51b815260206004820152602660248201527f496e73756666696369656e7420746f6b656e2062616c616e636520696e20636f6044820152651b9d1c9858dd60d21b6064820152608401610211565b6002546001600160a01b031663a9059cbb6103795f546001600160a01b031690565b6040516001600160e01b031960e084901b1681526001600160a01b039091166004820152602481018590526044016020604051808303815f875af11580156103c3573d5f5f3e3d5ffd5b505050506040513d601f19601f820116820180604052508101906103e79190610b71565b6104035760405162461bcd60e51b815260040161021190610b90565b5061040d60018055565b50565b610418610a30565b5f81116104675760405162461bcd60e51b815260206004820181905260248201527f416d6f756e74206d7573742062652067726561746572207468616e207a65726f6044820152606401610211565b60055460ff16156104cb5760405162461bcd60e51b815260206004820152602860248201527f43616e6e6f74207769746864726177206372656469747320616674657220415060448201526709240d8c2eadcc6d60c31b6064820152608401610211565b335f908152600360205260409020548111156105205760405162461bcd60e51b8152602060048201526014602482015273496e73756666696369656e74206372656469747360601b6044820152606401610211565b600254335f908152600360205260409081902054905163095ea7b360e01b815230600482015260248101919091526001600160a01b039091169063095ea7b3906044016020604051808303815f875af115801561057f573d5f5f3e3d5ffd5b505050506040513d601f19601f820116820180604052508101906105a39190610b71565b50335f90815260036020526040812080548392906105c2908490610bd3565b909155505060025460405163a9059cbb60e01b8152336004820152602481018390526001600160a01b039091169063a9059cbb906044016020604051808303815f875af1158015610615573d5f5f3e3d5ffd5b505050506040513d601f19601f820116820180604052508101906106399190610b71565b6106555760405162461bcd60e51b815260040161021190610b90565b337f13927a0e5ddcb4707297ef2f788106c79b9a1f1ef12870ac0027af4c24e9e09061068083610bec565b60405190815260200160405180910390a261040d60018055565b6106a2610a04565b6106ab5f610a5a565b565b6106b5610a04565b60055460ff16156107085760405162461bcd60e51b815260206004820152601d60248201527f4150492068617320616c7265616479206265656e206c61756e636865640000006044820152606401610211565b6005805460ff191660011790555f5b60045481101561040d575f6004828154811061073557610735610c06565b5f9182526020808320909101546001600160a01b03168083526003909152604090912054909150606461076982607d610c1a565b6107739190610c31565b6001600160a01b039092165f9081526003602052604090209190915550600101610717565b5f81116107e75760405162461bcd60e51b815260206004820181905260248201527f416d6f756e74206d7573742062652067726561746572207468616e207a65726f6044820152606401610211565b600254604051636eb1769f60e11b81523360048201523060248201525f916001600160a01b03169063dd62ed3e90604401602060405180830381865afa158015610833573d5f5f3e3d5ffd5b505050506040513d601f19601f820116820180604052508101906108579190610b5a565b9050818110156108a95760405162461bcd60e51b815260206004820152601c60248201527f496e73756666696369656e7420746f6b656e20616c6c6f77616e6365000000006044820152606401610211565b6002546040516323b872dd60e01b8152336004820152306024820152604481018490526001600160a01b03909116906323b872dd906064016020604051808303815f875af11580156108fd573d5f5f3e3d5ffd5b505050506040513d601f19601f820116820180604052508101906109219190610b71565b61093d5760405162461bcd60e51b815260040161021190610b90565b61094633610aa9565b335f9081526003602052604081208054849290610964908490610c50565b909155505060405182815233907f13927a0e5ddcb4707297ef2f788106c79b9a1f1ef12870ac0027af4c24e9e0909060200160405180910390a25050565b600481815481106109b1575f80fd5b5f918252602090912001546001600160a01b0316905081565b6109d2610a04565b6001600160a01b0381166109fb57604051631e4fbdf760e01b81525f6004820152602401610211565b61040d81610a5a565b5f546001600160a01b031633146106ab5760405163118cdaa760e01b8152336004820152602401610211565b600260015403610a5357604051633ee5aeb560e01b815260040160405180910390fd5b6002600155565b5f80546001600160a01b038381166001600160a01b0319831681178455604051919092169283917f8be0079c531659141344cd1fd0a4f28419497f9722a3daafe3b4186f6b6457e09190a35050565b6001600160a01b0381165f90815260036020526040812054900361040d57600480546001810182555f919091527f8a35acfbc15ff81a39ae7d344fd709f28e8600b4aa8c65c6b64bfe7fe36bd19b0180546001600160a01b0383166001600160a01b031990911617905550565b5f60208284031215610b26575f5ffd5b5035919050565b5f60208284031215610b3d575f5ffd5b81356001600160a01b0381168114610b53575f5ffd5b9392505050565b5f60208284031215610b6a575f5ffd5b5051919050565b5f60208284031215610b81575f5ffd5b81518015158114610b53575f5ffd5b602080825260159082015274151bdad95b881d1c985b9cd9995c8819985a5b1959605a1b604082015260600190565b634e487b7160e01b5f52601160045260245ffd5b81810381811115610be657610be6610bbf565b92915050565b5f600160ff1b8201610c0057610c00610bbf565b505f0390565b634e487b7160e01b5f52603260045260245ffd5b8082028115828204841417610be657610be6610bbf565b5f82610c4b57634e487b7160e01b5f52601260045260245ffd5b500490565b80820180821115610be657610be6610bbf56fea2646970667358221220e265f352f6778c637cf17d000591f99ea19678425753e058948bfce77eb1e37264736f6c634300081c0033","linkReferences":{}},"methodIdentifiers":{"apiLaunched()":"d79e79f7","depositAmount(address)":"50f62da7","depositors(uint256)":"e4b2fb79","launchAPI()":"8466a011","owner()":"8da5cb5b","purchaseCredits(uint256)":"bef101fb","refundDeposit(uint256)":"6de0de7e","renounceOwnership()":"715018a6","token()":"fc0c546a","transferOwnership(address)":"f2fde38b","withdrawTokens(uint256)":"315a095d"},"id":7}