{
  "abi": [
    {
      "type": "constructor",
      "inputs": [
        {
          "name": "_token",
          "type": "address",
          "internalType": "contract IERC20"
        }
      ],
      "stateMutability": "nonpayable"
    },
    {
      "type": "function",
      "name": "apiCredits",
      "inputs": [
        {
          "name": "",
          "type": "address",
          "internalType": "address"
        }
      ],
      "outputs": [
        {
          "name": "",
          "type": "uint256",
          "internalType": "uint256"
        }
      ],
      "stateMutability": "view"
    },
    {
      "type": "function",
      "name": "apiLaunched",
      "inputs": [],
      "outputs": [
        {
          "name": "",
          "type": "bool",
          "internalType": "bool"
        }
      ],
      "stateMutability": "view"
    },
    {
      "type": "function",
      "name": "depositAmount",
      "inputs": [
        {
          "name": "",
          "type": "address",
          "internalType": "address"
        }
      ],
      "outputs": [
        {
          "name": "",
          "type": "uint256",
          "internalType": "uint256"
        }
      ],
      "stateMutability": "view"
    },
    {
      "type": "function",
      "name": "depositors",
      "inputs": [
        {
          "name": "",
          "type": "uint256",
          "internalType": "uint256"
        }
      ],
      "outputs": [
        {
          "name": "",
          "type": "address",
          "internalType": "address"
        }
      ],
      "stateMutability": "view"
    },
    {
      "type": "function",
      "name": "giveFreeCredits",
      "inputs": [
        {
          "name": "recipient",
          "type": "address",
          "internalType": "address"
        },
        {
          "name": "creditAmount",
          "type": "uint256",
          "internalType": "uint256"
        }
      ],
      "outputs": [],
      "stateMutability": "nonpayable"
    },
    {
      "type": "function",
      "name": "launchAPI",
      "inputs": [],
      "outputs": [],
      "stateMutability": "nonpayable"
    },
    {
      "type": "function",
      "name": "owner",
      "inputs": [],
      "outputs": [
        {
          "name": "",
          "type": "address",
          "internalType": "address"
        }
      ],
      "stateMutability": "view"
    },
    {
      "type": "function",
      "name": "promotionalCreditScalar",
      "inputs": [],
      "outputs": [
        {
          "name": "",
          "type": "uint256",
          "internalType": "uint256"
        }
      ],
      "stateMutability": "view"
    },
    {
      "type": "function",
      "name": "purchaseCredits",
      "inputs": [
        {
          "name": "amount",
          "type": "uint256",
          "internalType": "uint256"
        }
      ],
      "outputs": [],
      "stateMutability": "nonpayable"
    },
    {
      "type": "function",
      "name": "refundDeposit",
      "inputs": [
        {
          "name": "amount",
          "type": "uint256",
          "internalType": "uint256"
        }
      ],
      "outputs": [],
      "stateMutability": "nonpayable"
    },
    {
      "type": "function",
      "name": "renounceOwnership",
      "inputs": [],
      "outputs": [],
      "stateMutability": "nonpayable"
    },
    {
      "type": "function",
      "name": "setPromotionalCreditScalar",
      "inputs": [
        {
          "name": "newScalar",
          "type": "uint256",
          "internalType": "uint256"
        }
      ],
      "outputs": [],
      "stateMutability": "nonpayable"
    },
    {
      "type": "function",
      "name": "token",
      "inputs": [],
      "outputs": [
        {
          "name": "",
          "type": "address",
          "internalType": "contract IERC20"
        }
      ],
      "stateMutability": "view"
    },
    {
      "type": "function",
      "name": "transferOwnership",
      "inputs": [
        {
          "name": "newOwner",
          "type": "address",
          "internalType": "address"
        }
      ],
      "outputs": [],
      "stateMutability": "nonpayable"
    },
    {
      "type": "function",
      "name": "withdrawTokens",
      "inputs": [
        {
          "name": "amount",
          "type": "uint256",
          "internalType": "uint256"
        }
      ],
      "outputs": [],
      "stateMutability": "nonpayable"
    },
    {
      "type": "event",
      "name": "CreditsPurchased",
      "inputs": [
        {
          "name": "purchaser",
          "type": "address",
          "indexed": true,
          "internalType": "address"
        },
        {
          "name": "amount",
          "type": "uint256",
          "indexed": false,
          "internalType": "uint256"
        },
        {
          "name": "credits",
          "type": "uint256",
          "indexed": false,
          "internalType": "uint256"
        }
      ],
      "anonymous": false
    },
    {
      "type": "event",
      "name": "CreditsRefunded",
      "inputs": [
        {
          "name": "refunder",
          "type": "address",
          "indexed": true,
          "internalType": "address"
        },
        {
          "name": "amount",
          "type": "uint256",
          "indexed": false,
          "internalType": "uint256"
        }
      ],
      "anonymous": false
    },
    {
      "type": "event",
      "name": "OwnershipTransferred",
      "inputs": [
        {
          "name": "previousOwner",
          "type": "address",
          "indexed": true,
          "internalType": "address"
        },
        {
          "name": "newOwner",
          "type": "address",
          "indexed": true,
          "internalType": "address"
        }
      ],
      "anonymous": false
    },
    {
      "type": "error",
      "name": "OwnableInvalidOwner",
      "inputs": [
        {
          "name": "owner",
          "type": "address",
          "internalType": "address"
        }
      ]
    },
    {
      "type": "error",
      "name": "OwnableUnauthorizedAccount",
      "inputs": [
        {
          "name": "account",
          "type": "address",
          "internalType": "address"
        }
      ]
    },
    {
      "type": "error",
      "name": "ReentrancyGuardReentrantCall",
      "inputs": []
    }
  ],
  "bytecode": {
    "object": "0x6080604052607d600655348015610014575f5ffd5b50604051610fb0380380610fb0833981016040819052610033916100e4565b338061005857604051631e4fbdf760e01b81525f600482015260240160405180910390fd5b61006181610095565b5060018055600280546001600160a01b0319166001600160a01b03929092169190911790556007805460ff19169055610111565b5f80546001600160a01b038381166001600160a01b0319831681178455604051919092169283917f8be0079c531659141344cd1fd0a4f28419497f9722a3daafe3b4186f6b6457e09190a35050565b5f602082840312156100f4575f5ffd5b81516001600160a01b038116811461010a575f5ffd5b9392505050565b610e928061011e5f395ff3fe608060405234801561000f575f5ffd5b50600436106100f0575f3560e01c8063af32770711610093578063e325820f11610063578063e325820f146101ed578063e4b2fb7914610200578063f2fde38b14610213578063fc0c546a14610226575f5ffd5b8063af3277071461018b578063bef101fb1461019e578063cc9f616f146101b1578063d79e79f7146101d0575f5ffd5b80636de0de7e116100ce5780636de0de7e14610144578063715018a6146101575780638466a0111461015f5780638da5cb5b14610167575f5ffd5b80630fd83d9c146100f4578063315a095d1461011057806350f62da714610125575b5f5ffd5b6100fd60065481565b6040519081526020015b60405180910390f35b61012361011e366004610cd2565b610239565b005b6100fd610133366004610d04565b60036020525f908152604090205481565b610123610152366004610cd2565b6104a8565b610123610738565b61012361074b565b5f546001600160a01b03165b6040516001600160a01b039091168152602001610107565b610123610199366004610cd2565b6107b5565b6101236101ac366004610cd2565b610872565b6100fd6101bf366004610d04565b60046020525f908152604090205481565b6007546101dd9060ff1681565b6040519015158152602001610107565b6101236101fb366004610d24565b610a97565b61017361020e366004610cd2565b610b5e565b610123610221366004610d04565b610b86565b600254610173906001600160a01b031681565b610241610bc0565b610249610bec565b60075460ff166102b25760405162461bcd60e51b815260206004820152602960248201527f43616e206f6e6c7920776974686472617720746f6b656e7320616674657220416044820152680a09240d8c2eadcc6d60bb1b60648201526084015b60405180910390fd5b6002546040516370a0823160e01b81523060048201525f916001600160a01b0316906370a0823190602401602060405180830381865afa1580156102f8573d5f5f3e3d5ffd5b505050506040513d601f19601f8201168201806040525081019061031c9190610d4c565b60025460405163095ea7b360e01b8152306004820152602481018590529192506001600160a01b03169063095ea7b3906044016020604051808303815f875af115801561036b573d5f5f3e3d5ffd5b505050506040513d601f19601f8201168201806040525081019061038f9190610d63565b50818110156103ef5760405162461bcd60e51b815260206004820152602660248201527f496e73756666696369656e7420746f6b656e2062616c616e636520696e20636f6044820152651b9d1c9858dd60d21b60648201526084016102a9565b6002546001600160a01b031663a9059cbb6104115f546001600160a01b031690565b6040516001600160e01b031960e084901b1681526001600160a01b039091166004820152602481018590526044016020604051808303815f875af115801561045b573d5f5f3e3d5ffd5b505050506040513d601f19601f8201168201806040525081019061047f9190610d63565b61049b5760405162461bcd60e51b81526004016102a990610d82565b506104a560018055565b50565b6104b0610bec565b5f81116104cf5760405162461bcd60e51b81526004016102a990610db1565b60075460ff16156105335760405162461bcd60e51b815260206004820152602860248201527f43616e6e6f74207769746864726177206372656469747320616674657220415060448201526709240d8c2eadcc6d60c31b60648201526084016102a9565b335f908152600360205260409020548111156105885760405162461bcd60e51b8152602060048201526014602482015273496e73756666696369656e74206372656469747360601b60448201526064016102a9565b600254335f908152600360205260409081902054905163095ea7b360e01b815230600482015260248101919091526001600160a01b039091169063095ea7b3906044016020604051808303815f875af11580156105e7573d5f5f3e3d5ffd5b505050506040513d601f19601f8201168201806040525081019061060b9190610d63565b50335f908152600360205260408120805483929061062a908490610dfa565b909155505060065460649061063f9083610e13565b6106499190610e2a565b335f9081526004602052604081208054909190610667908490610dfa565b909155505060025460405163a9059cbb60e01b8152336004820152602481018390526001600160a01b039091169063a9059cbb906044016020604051808303815f875af11580156106ba573d5f5f3e3d5ffd5b505050506040513d601f19601f820116820180604052508101906106de9190610d63565b6106fa5760405162461bcd60e51b81526004016102a990610d82565b60405181815233907f8c940bf197823daa47ccdb92559c3e1ed957fd159c4a435c40db777a33fc4d4d9060200160405180910390a26104a560018055565b610740610bc0565b6107495f610c16565b565b610753610bc0565b60075460ff16156107a65760405162461bcd60e51b815260206004820152601d60248201527f4150492068617320616c7265616479206265656e206c61756e6368656400000060448201526064016102a9565b6007805460ff19166001179055565b6107bd610bc0565b5f811161080c5760405162461bcd60e51b815260206004820181905260248201527f5363616c6172206d7573742062652067726561746572207468616e207a65726f60448201526064016102a9565b60075460ff1661086d5760405162461bcd60e51b815260206004820152602660248201527f43616e6e6f74206368616e6765207363616c6172206265666f726520415049206044820152650d8c2eadcc6d60d31b60648201526084016102a9565b600655565b5f81116108915760405162461bcd60e51b81526004016102a990610db1565b600254604051636eb1769f60e11b81523360048201523060248201525f916001600160a01b03169063dd62ed3e90604401602060405180830381865afa1580156108dd573d5f5f3e3d5ffd5b505050506040513d601f19601f820116820180604052508101906109019190610d4c565b9050818110156109535760405162461bcd60e51b815260206004820152601c60248201527f496e73756666696369656e7420746f6b656e20616c6c6f77616e63650000000060448201526064016102a9565b6002546040516323b872dd60e01b8152336004820152306024820152604481018490526001600160a01b03909116906323b872dd906064016020604051808303815f875af11580156109a7573d5f5f3e3d5ffd5b505050506040513d601f19601f820116820180604052508101906109cb9190610d63565b6109e75760405162461bcd60e51b81526004016102a990610d82565b6109f033610c65565b335f9081526003602052604081208054849290610a0e908490610e49565b90915550506006545f90606490610a259085610e13565b610a2f9190610e2a565b335f90815260046020526040812080549293508392909190610a52908490610e49565b9091555050604080518481526020810183905233917ffb82fc1c5adf84899709e87563b69dd5f4ac33320f1c60dbca744bec717eb90f910160405180910390a2505050565b610a9f610bc0565b5f8111610abe5760405162461bcd60e51b81526004016102a990610db1565b60075460ff16610b2e5760405162461bcd60e51b815260206004820152603560248201527f43616e206f6e6c792067697665206f7574206672656520637265646974732061604482015274199d195c881d1a1948105412481b185d5b98da1959605a1b60648201526084016102a9565b6001600160a01b0382165f9081526004602052604081208054839290610b55908490610e49565b90915550505050565b60058181548110610b6d575f80fd5b5f918252602090912001546001600160a01b0316905081565b610b8e610bc0565b6001600160a01b038116610bb757604051631e4fbdf760e01b81525f60048201526024016102a9565b6104a581610c16565b5f546001600160a01b031633146107495760405163118cdaa760e01b81523360048201526024016102a9565b600260015403610c0f57604051633ee5aeb560e01b815260040160405180910390fd5b6002600155565b5f80546001600160a01b038381166001600160a01b0319831681178455604051919092169283917f8be0079c531659141344cd1fd0a4f28419497f9722a3daafe3b4186f6b6457e09190a35050565b6001600160a01b0381165f9081526003602052604081205490036104a557600580546001810182555f919091527f036b6384b5eca791c62761152d0c79bb0604c104a5fb6f4eb0703f3154bb3db00180546001600160a01b0383166001600160a01b031990911617905550565b5f60208284031215610ce2575f5ffd5b5035919050565b80356001600160a01b0381168114610cff575f5ffd5b919050565b5f60208284031215610d14575f5ffd5b610d1d82610ce9565b9392505050565b5f5f60408385031215610d35575f5ffd5b610d3e83610ce9565b946020939093013593505050565b5f60208284031215610d5c575f5ffd5b5051919050565b5f60208284031215610d73575f5ffd5b81518015158114610d1d575f5ffd5b602080825260159082015274151bdad95b881d1c985b9cd9995c8819985a5b1959605a1b604082015260600190565b6020808252818101527f416d6f756e74206d7573742062652067726561746572207468616e207a65726f604082015260600190565b634e487b7160e01b5f52601160045260245ffd5b81810381811115610e0d57610e0d610de6565b92915050565b8082028115828204841417610e0d57610e0d610de6565b5f82610e4457634e487b7160e01b5f52601260045260245ffd5b500490565b80820180821115610e0d57610e0d610de656fea2646970667358221220f3f3a5d1153cdb790652c906fd8f0e1718c5b6887bcd94aa0ebbfa32fbd324aa64736f6c634300081c0033",
    "linkReferences": {}
  },
  "methodIdentifiers": {
    "apiCredits(address)": "cc9f616f",
    "apiLaunched()": "d79e79f7",
    "depositAmount(address)": "50f62da7",
    "depositors(uint256)": "e4b2fb79",
    "giveFreeCredits(address,uint256)": "e325820f",
    "launchAPI()": "8466a011",
    "owner()": "8da5cb5b",
    "promotionalCreditScalar()": "0fd83d9c",
    "purchaseCredits(uint256)": "bef101fb",
    "refundDeposit(uint256)": "6de0de7e",
    "renounceOwnership()": "715018a6",
    "setPromotionalCreditScalar(uint256)": "af327707",
    "token()": "fc0c546a",
    "transferOwnership(address)": "f2fde38b",
    "withdrawTokens(uint256)": "315a095d"
  },
  "id": 30
}