{"abi":[{"type":"constructor","inputs":[{"name":"_token","type":"address","internalType":"contract IERC20"}],"stateMutability":"nonpayable"},{"type":"function","name":"apiCredits","inputs":[{"name":"","type":"address","internalType":"address"}],"outputs":[{"name":"","type":"uint256","internalType":"uint256"}],"stateMutability":"view"},{"type":"function","name":"apiLaunched","inputs":[],"outputs":[{"name":"","type":"bool","internalType":"bool"}],"stateMutability":"view"},{"type":"function","name":"depositAmount","inputs":[{"name":"","type":"address","internalType":"address"}],"outputs":[{"name":"","type":"uint256","internalType":"uint256"}],"stateMutability":"view"},{"type":"function","name":"depositors","inputs":[{"name":"","type":"uint256","internalType":"uint256"}],"outputs":[{"name":"","type":"address","internalType":"address"}],"stateMutability":"view"},{"type":"function","name":"launchAPI","inputs":[],"outputs":[],"stateMutability":"nonpayable"},{"type":"function","name":"owner","inputs":[],"outputs":[{"name":"","type":"address","internalType":"address"}],"stateMutability":"view"},{"type":"function","name":"promotionalCreditScalar","inputs":[],"outputs":[{"name":"","type":"uint256","internalType":"uint256"}],"stateMutability":"view"},{"type":"function","name":"purchaseCredits","inputs":[{"name":"amount","type":"uint256","internalType":"uint256"}],"outputs":[],"stateMutability":"nonpayable"},{"type":"function","name":"refundDeposit","inputs":[{"name":"amount","type":"uint256","internalType":"uint256"}],"outputs":[],"stateMutability":"nonpayable"},{"type":"function","name":"renounceOwnership","inputs":[],"outputs":[],"stateMutability":"nonpayable"},{"type":"function","name":"setPromotionalCreditScalar","inputs":[{"name":"newScalar","type":"uint256","internalType":"uint256"}],"outputs":[],"stateMutability":"nonpayable"},{"type":"function","name":"token","inputs":[],"outputs":[{"name":"","type":"address","internalType":"contract IERC20"}],"stateMutability":"view"},{"type":"function","name":"transferOwnership","inputs":[{"name":"newOwner","type":"address","internalType":"address"}],"outputs":[],"stateMutability":"nonpayable"},{"type":"function","name":"withdrawTokens","inputs":[{"name":"amount","type":"uint256","internalType":"uint256"}],"outputs":[],"stateMutability":"nonpayable"},{"type":"event","name":"CreditsPurchased","inputs":[{"name":"purchaser","type":"address","indexed":true,"internalType":"address"},{"name":"amount","type":"uint256","indexed":false,"internalType":"uint256"}],"anonymous":false},{"type":"event","name":"CreditsRefudned","inputs":[{"name":"refunder","type":"address","indexed":true,"internalType":"address"},{"name":"amount","type":"uint256","indexed":false,"internalType":"uint256"}],"anonymous":false},{"type":"event","name":"OwnershipTransferred","inputs":[{"name":"previousOwner","type":"address","indexed":true,"internalType":"address"},{"name":"newOwner","type":"address","indexed":true,"internalType":"address"}],"anonymous":false},{"type":"error","name":"OwnableInvalidOwner","inputs":[{"name":"owner","type":"address","internalType":"address"}]},{"type":"error","name":"OwnableUnauthorizedAccount","inputs":[{"name":"account","type":"address","internalType":"address"}]},{"type":"error","name":"ReentrancyGuardReentrantCall","inputs":[]}],"bytecode":{"object":"0x6080604052607d600655348015610014575f5ffd5b50604051610e51380380610e51833981016040819052610033916100e4565b338061005857604051631e4fbdf760e01b81525f600482015260240160405180910390fd5b61006181610095565b5060018055600280546001600160a01b0319166001600160a01b03929092169190911790556007805460ff19169055610111565b5f80546001600160a01b038381166001600160a01b0319831681178455604051919092169283917f8be0079c531659141344cd1fd0a4f28419497f9722a3daafe3b4186f6b6457e09190a35050565b5f602082840312156100f4575f5ffd5b81516001600160a01b038116811461010a575f5ffd5b9392505050565b610d338061011e5f395ff3fe608060405234801561000f575f5ffd5b50600436106100e5575f3560e01c8063af32770711610088578063d79e79f711610063578063d79e79f7146101c5578063e4b2fb79146101e2578063f2fde38b146101f5578063fc0c546a14610208575f5ffd5b8063af32770714610180578063bef101fb14610193578063cc9f616f146101a6575f5ffd5b80636de0de7e116100c35780636de0de7e14610139578063715018a61461014c5780638466a011146101545780638da5cb5b1461015c575f5ffd5b80630fd83d9c146100e9578063315a095d1461010557806350f62da71461011a575b5f5ffd5b6100f260065481565b6040519081526020015b60405180910390f35b610118610113366004610bde565b61021b565b005b6100f2610128366004610bf5565b60036020525f908152604090205481565b610118610147366004610bde565b61048a565b61011861074a565b61011861075d565b5f546001600160a01b03165b6040516001600160a01b0390911681526020016100fc565b61011861018e366004610bde565b6107c7565b6101186101a1366004610bde565b610823565b6100f26101b4366004610bf5565b60046020525f908152604090205481565b6007546101d29060ff1681565b60405190151581526020016100fc565b6101686101f0366004610bde565b610a6a565b610118610203366004610bf5565b610a92565b600254610168906001600160a01b031681565b610223610acc565b61022b610af8565b60075460ff166102945760405162461bcd60e51b815260206004820152602960248201527f43616e206f6e6c7920776974686472617720746f6b656e7320616674657220416044820152680a09240d8c2eadcc6d60bb1b60648201526084015b60405180910390fd5b6002546040516370a0823160e01b81523060048201525f916001600160a01b0316906370a0823190602401602060405180830381865afa1580156102da573d5f5f3e3d5ffd5b505050506040513d601f19601f820116820180604052508101906102fe9190610c22565b60025460405163095ea7b360e01b8152306004820152602481018590529192506001600160a01b03169063095ea7b3906044016020604051808303815f875af115801561034d573d5f5f3e3d5ffd5b505050506040513d601f19601f820116820180604052508101906103719190610c39565b50818110156103d15760405162461bcd60e51b815260206004820152602660248201527f496e73756666696369656e7420746f6b656e2062616c616e636520696e20636f6044820152651b9d1c9858dd60d21b606482015260840161028b565b6002546001600160a01b031663a9059cbb6103f35f546001600160a01b031690565b6040516001600160e01b031960e084901b1681526001600160a01b039091166004820152602481018590526044016020604051808303815f875af115801561043d573d5f5f3e3d5ffd5b505050506040513d601f19601f820116820180604052508101906104619190610c39565b61047d5760405162461bcd60e51b815260040161028b90610c58565b5061048760018055565b50565b610492610af8565b5f81116104e15760405162461bcd60e51b815260206004820181905260248201527f416d6f756e74206d7573742062652067726561746572207468616e207a65726f604482015260640161028b565b60075460ff16156105455760405162461bcd60e51b815260206004820152602860248201527f43616e6e6f74207769746864726177206372656469747320616674657220415060448201526709240d8c2eadcc6d60c31b606482015260840161028b565b335f9081526003602052604090205481111561059a5760405162461bcd60e51b8152602060048201526014602482015273496e73756666696369656e74206372656469747360601b604482015260640161028b565b600254335f908152600360205260409081902054905163095ea7b360e01b815230600482015260248101919091526001600160a01b039091169063095ea7b3906044016020604051808303815f875af11580156105f9573d5f5f3e3d5ffd5b505050506040513d601f19601f8201168201806040525081019061061d9190610c39565b50335f908152600360205260408120805483929061063c908490610c9b565b90915550506006546064906106519083610cb4565b61065b9190610ccb565b335f9081526004602052604081208054909190610679908490610c9b565b909155505060025460405163a9059cbb60e01b8152336004820152602481018390526001600160a01b039091169063a9059cbb906044016020604051808303815f875af11580156106cc573d5f5f3e3d5ffd5b505050506040513d601f19601f820116820180604052508101906106f09190610c39565b61070c5760405162461bcd60e51b815260040161028b90610c58565b60405181815233907f49fd43a98dc929c7b48c329f9261b3eac1d747c8e1cc79ed1720b1141d262b7c9060200160405180910390a261048760018055565b610752610acc565b61075b5f610b22565b565b610765610acc565b60075460ff16156107b85760405162461bcd60e51b815260206004820152601d60248201527f4150492068617320616c7265616479206265656e206c61756e63686564000000604482015260640161028b565b6007805460ff19166001179055565b6107cf610acc565b5f811161081e5760405162461bcd60e51b815260206004820181905260248201527f5363616c6172206d7573742062652067726561746572207468616e207a65726f604482015260640161028b565b600655565b5f81116108725760405162461bcd60e51b815260206004820181905260248201527f416d6f756e74206d7573742062652067726561746572207468616e207a65726f604482015260640161028b565b600254604051636eb1769f60e11b81523360048201523060248201525f916001600160a01b03169063dd62ed3e90604401602060405180830381865afa1580156108be573d5f5f3e3d5ffd5b505050506040513d601f19601f820116820180604052508101906108e29190610c22565b9050818110156109345760405162461bcd60e51b815260206004820152601c60248201527f496e73756666696369656e7420746f6b656e20616c6c6f77616e636500000000604482015260640161028b565b6002546040516323b872dd60e01b8152336004820152306024820152604481018490526001600160a01b03909116906323b872dd906064016020604051808303815f875af1158015610988573d5f5f3e3d5ffd5b505050506040513d601f19601f820116820180604052508101906109ac9190610c39565b6109c85760405162461bcd60e51b815260040161028b90610c58565b6109d133610b71565b335f90815260036020526040812080548492906109ef908490610cea565b9091555050600654606490610a049084610cb4565b610a0e9190610ccb565b335f9081526004602052604081208054909190610a2c908490610cea565b909155505060405182815233907faf9b1749af5a19a3405bb65598b8f92f4b0c52cc3c7e6110d03469ea2f5321489060200160405180910390a25050565b60058181548110610a79575f80fd5b5f918252602090912001546001600160a01b0316905081565b610a9a610acc565b6001600160a01b038116610ac357604051631e4fbdf760e01b81525f600482015260240161028b565b61048781610b22565b5f546001600160a01b0316331461075b5760405163118cdaa760e01b815233600482015260240161028b565b600260015403610b1b57604051633ee5aeb560e01b815260040160405180910390fd5b6002600155565b5f80546001600160a01b038381166001600160a01b0319831681178455604051919092169283917f8be0079c531659141344cd1fd0a4f28419497f9722a3daafe3b4186f6b6457e09190a35050565b6001600160a01b0381165f90815260036020526040812054900361048757600580546001810182555f919091527f036b6384b5eca791c62761152d0c79bb0604c104a5fb6f4eb0703f3154bb3db00180546001600160a01b0383166001600160a01b031990911617905550565b5f60208284031215610bee575f5ffd5b5035919050565b5f60208284031215610c05575f5ffd5b81356001600160a01b0381168114610c1b575f5ffd5b9392505050565b5f60208284031215610c32575f5ffd5b5051919050565b5f60208284031215610c49575f5ffd5b81518015158114610c1b575f5ffd5b602080825260159082015274151bdad95b881d1c985b9cd9995c8819985a5b1959605a1b604082015260600190565b634e487b7160e01b5f52601160045260245ffd5b81810381811115610cae57610cae610c87565b92915050565b8082028115828204841417610cae57610cae610c87565b5f82610ce557634e487b7160e01b5f52601260045260245ffd5b500490565b80820180821115610cae57610cae610c8756fea26469706673582212202cb7d5688bba1250f1441870dbd30d723327879cf4c4516f5dc3e7719c55d33664736f6c634300081c0033","linkReferences":{}},"methodIdentifiers":{"apiCredits(address)":"cc9f616f","apiLaunched()":"d79e79f7","depositAmount(address)":"50f62da7","depositors(uint256)":"e4b2fb79","launchAPI()":"8466a011","owner()":"8da5cb5b","promotionalCreditScalar()":"0fd83d9c","purchaseCredits(uint256)":"bef101fb","refundDeposit(uint256)":"6de0de7e","renounceOwnership()":"715018a6","setPromotionalCreditScalar(uint256)":"af327707","token()":"fc0c546a","transferOwnership(address)":"f2fde38b","withdrawTokens(uint256)":"315a095d"},"id":30}